:100000000C9444000C944E000C944E000C944E0042
:100010000C944E000C944E000C944E000C944E0028
:100020000C944E000C944E000C944E000C944E0018
:100030000C944E000C944E000C944E000C944E0008
:100040000C944E000C944E000C944E000C944E00F8
:100050000C944E000C944E000C944E000C944E00E8
:100060000C944E000C944E00600075007E009000D1
:10007000A200B100C300D800E400FC001101260179
:100080003801470159016B0111241FBECFEFD8E0A1
:10009000DEBFCDBF0E94CD010C9419020C9400006C
:1000A00085B115B88BB18F778BB9089590E0803109
:1000B000910508F01EC1FC01EC5CFF4F0C9404029A
:1000C0000E94500085B1816085B985B1826085B993
:1000D00085B1846085B985B1886085B985B1806155
:1000E00085B985B1806285B908950E94500085B1B7
:1000F000826085B985B1846085B908950E945000F9
:1001000085B1816085B985B1826085B985B1886026
:1001100085B985B1806185B98BB180688BB9089547
:100120000E94500085B1816085B985B1826085B932
:1001300085B1846085B985B1886085B98BB18068E7
:100140008BB908950E94500085B1826085B985B150
:10015000846085B985B1806285B98BB180688BB9BF
:1001600008950E94500085B1816085B985B1846091
:1001700085B985B1886085B985B1806285B98BB153
:1001800080688BB908950E94500085B1816085B95F
:1001900085B1846085B985B1886085B985B1806194
:1001A00085B985B1806285B98BB180688BB90895B6
:1001B0000E94500085B1816085B985B1826085B9A2
:1001C00085B1846085B908950E94500085B1816031
:1001D00085B985B1826085B985B1846085B985B1FD
:1001E000886085B985B1806185B985B1806285B93E
:1001F0008BB180688BB908950E94500085B18160F1
:1002000085B985B1826085B985B1846085B985B1CC
:10021000886085B985B1806285B98BB180688BB9FA
:1002200008950E94500085B1816085B985B18260D2
:1002300085B985B1846085B985B1806185B985B19D
:10024000806285B98BB180688BB908950E94500097
:1002500085B1846085B985B1886085B985B18061D3
:1002600085B985B1806285B98BB180688BB90895F5
:100270000E94500085B1816085B985B1886085B9DB
:1002800085B1806185B985B1806285B908950E9484
:10029000500085B1826085B985B1846085B985B12A
:1002A000886085B985B1806185B98BB180688BB96B
:1002B00008950E94500085B1816085B985B188603C
:1002C00085B985B1806185B985B1806285B98BB109
:1002D00080688BB908950E94500085B1816085B90E
:1002E00085B1806185B985B1806285B98BB180683F
:1002F0008BB908958BB180618BB98BB18F7E8BB92F
:1003000008958BB180628BB98BB18F7D8BB90895C5
:10031000811103C09BB19F7B9BB9813019F48BB1D4
:1003200080648BB90E947A010895CF93DF93D82F10
:10033000C7E00EC02D2F30E00C2E02C0359527955A
:100340000A94E2F781E020FF80E00E948801C1501A
:10035000CF3F81F70E948101DF91CF9108959C01E9
:1003600016BC95B3926095BBADECBCEC0E940A0242
:10037000AC0156954795569547955695479520E07B
:1003800030E007C0A99BFECF95B3926095BB2F5F6D
:100390003F4F24173507B0F3089582E084BD8DE9FF
:1003A00087BD16BC85B3816085BB85E085BD8AB1FC
:1003B00080678AB984B18FEF84B98AB180688AB9BD
:1003C000C0E04A9B0BC084E190E00E94AF014A9BD1
:1003D00005C0CF5F8EE190E00E94AF014B9B0BC048
:1003E00084E190E00E94AF014B9B05C0C1508EE1BB
:1003F00090E00E94AF018C2F0E9495018C2F829576
:100400008F700E945600DDCFEE0FFF1F0590F49114
:10041000E02D0994A29FB001B39FC001A39F700D6E
:10042000811D1124911DB29F700D811D1124911DFC
:060430000895F894FFCFCF
:00000001FF
